:020000040000FA
:060000001FEF1FF01200CB
:020006001200E6
:06000800EFEF19F01200F9
:02000E000500EB
:10001000A43F0000B90100001E000000A23F000044
:10002000FC00000002000000A03F0000360F0000AE
:1000300002000000E73E000000010000B9000000DF
:0C0040009C3E0000760200004B00000017
:04004C00BAD8F7D84F
:10005000EAD8F5D816D9F3D828D9F1D832D945D964
:100060000A0EE66E4DEC1BF0E5521200A0DA080E07
:10007000E66E4DEC1BF0E552F6C0E6FFF7C0E6FF7A
:10008000D6D9E552E552D6DA66EF03F06ED819D923
:100090002CD9320E146E2B0E156E166A14C0E6FFA4
:1000A00015C0E6FF16C0E6FF81EC1DF0E552E552F3
:1000B000E552020EE66E4DEC1BF0E552C7DF0AEC8E
:1000C00006F0320E146E2B0E156E166A14C0E6FF83
:1000D00015C0E6FF16C0E6FF81EC1DF0E552E552C3
:1000E000E55236EF00F0E66A1BEC19F0E5520F011D
:1000F000106F090E166E010E176E186A16C0E6FF15
:1001000017C0E6FF18C0E6FF1051E66EE66A94ECF1
:100110001CF0196E050EE15E1950F3CF14F0F4CF08
:1001200015F01450151020E0110E146E2B0E156EE4
:10013000166A14C0E6FF15C0E6FF16C0E6FF110EF2
:10014000E66E0F0EE66E6DEC1CF0176E050EE15EAE
:100150001750010EE66E110EE66E0F0EE66E5DECA8
:1001600019F0E552E552E5521200D9CFE6FFE1CF92
:10017000D9FF070EE126D9CFE9FFDACFEAFF410E1A
:10018000EE6E540EEE6E2B0EEE6E520EEE6E530EA3
:10019000EE6E540EEE6EEE6A010EE66ED9CFE6FFFD
:1001A000DACFE6FF5DEC19F0E552E552E552070EB5
:1001B000E15C02E2E16AE552E16EE552E7CFD9FF88
:1001C0001200D9CFE6FFE1CFD9FF0A0EE126D9CF41
:1001D000E9FFDACFEAFF410EEE6E540EEE6E2B0E03
:1001E000EE6E430EEE6E570EEE6E4A0EEE6E410E42
:1001F000EE6E500EEE6E3D0EEE6EEE6A010EE66E87
:10020000D9CFE6FFDACFE6FF5DEC19F0E552E55213
:10021000E5520A0EE15C02E2E16AE552E16EE55266
:10022000E7CFD9FF1200010EE66E2D0EE66E010E2D
:10023000E66E5DEC19F0E552E552E5521200D9CFB9
:10024000E6FFE1CFD9FF020EE126D9CFE9FFDACFF1
:10025000EAFF220EEE6EEE6A010EE66ED9CFE6FFE1
:10026000DACFE6FF5DEC19F0E552E552E552020EF9
:10027000E15C02E2E16AE552E16EE552E7CFD9FFC7
:100280001200D9CFE6FFE1CFD9FFE6522C0EDF6E88
:10029000010EE66EDFCFE6FFFAEC18F0E552E5520C
:1002A000E552E552E7CFD9FF1200010EE66E350E9A
:1002B000E66E010EE66E5DEC19F0E552E552E55290
:1002C0001200D9CFE6FFE1CFD9FFE6520D0EDF6E67
:1002D000010EE66EDFCFE6FFFAEC18F0E552E552CC
:1002E000E552E552E7CFD9FF1200D9CFE6FFE1CFC3
:1002F000D9FFE6520A0EDF6E010EE66EDFCFE6FF93
:10030000FAEC18F0E552E552E552E552E7CFD9FF95
:100310001200D9CFE6FFE1CFD9FF0D0EE126D9CFEC
:10032000E9FFDACFEAFF410EEE6E540EEE6E2B0EB1
:10033000EE6E430EEE6E490EEE6E500EEE6E530EE6
:10034000EE6E540EEE6E410EEE6E520EEE6E540ECA
:10035000EE6E3D0EEE6EEE6A010EE66ED9CFE6FF52
:10036000DACFE6FF5DEC19F0E552E552E5520D0EED
:10037000E15C02E2E16AE552E16EE552E7CFD9FFC6
:100380001200D9CFE6FFE1CFD9FF040EE126D9CF85
:10039000E9FFDACFEAFF540EEE6E430EEE6E500E1A
:1003A000EE6EEE6A010EE66ED9CFE6FFDACFE6FF1B
:1003B0005DEC19F0E552E552E552040EE15C02E213
:1003C000E16AE552E16EE552E7CFD9FF1200010E76
:1003D000E66E3E0EE66E010EE66E5DEC19F0E5523D
:1003E000E552E5521200D9CFE6FFE1CFD9FF030E67
:1003F000E126D9CFE9FFDACFEAFF380EEE6E300EF4
:10040000EE6EEE6A010EE66ED9CFE6FFDACFE6FFBA
:100410005DEC19F0E552E552E552030EE15C02E2B3
:10042000E16AE552E16EE552E7CFD9FF1200D9CF7C
:10043000E6FFE1CFD9FF060EE126D9CFE9FFDACFFB
:10044000EAFF500EEE6E4F0EEE6E530EEE6E540E31
:10045000EE6E200EEE6EEE6A0F010F6B000EE66E72
:10046000020EE66E86EC1CF0E552E552F3CF76F212
:10047000F4CF77F2510EE66E010EE66E86EC1CF0BC
:10048000E552E552F3CF78F2F4CF79F28F0EE66EB3
:10049000010EE66E86EC1CF0E552E552F3CF7AF2DF
:1004A000F4CF7BF27C0EE66E010EE66E86EC1CF05D
:1004B000E552E552F3CF7CF2F4CF7DF202017851A0
:1004C0007A25166E79517B21176E16507C25146E95
:1004D00017507D21156E145076257E6F15507721AB
:1004E0007F6F9A0E7E27000E7F237EC2E6FF7FC2BB
:1004F000E6FF0E0E146E2B0E156E166A14C0E6FF84
:1005000015C0E6FF16C0E6FF0F0EE66E0F0EE66E94
:10051000DCEC1CF0176E070EE15E175055D8010E8B
:10052000E66E0F0EE66E0F0EE66E5DEC19F0E5520C
:10053000E552E552C6DED9DE040EE66E4DEC1BF048
:10054000E552010EE66ED9CFE6FFDACFE6FF5DECAD
:1005500019F0E552E552E552010EE66E510EE66ED7
:10056000010EE66E5DEC19F0E552E552E552010E22
:10057000E66E8F0EE66E010EE66E5DEC19F0E5524A
:10058000E552E552010EE66E000EE66E020EE66ED4
:100590005DEC19F0E552E552E552060EE15C02E22F
:1005A000E16AE552E16EE552E7CFD9FF1200B1DE14
:1005B00046DEE7DE44DE65DE42DE09DF40DE61DE88
:1005C00012DF7FDE75EF01F0D9CFE6FFE1CFD9FF73
:1005D0000C0EE126D9CFE9FFDACFEAFF410EEE6E2D
:1005E000540EEE6E2B0EEE6E430EEE6E490EEE6E58
:1005F000500EEE6E530EEE6E450EEE6E4E0EEE6E1D
:10060000440EEE6E3D0EEE6EEE6A010EE66ED9CF32
:10061000E6FFDACFE6FF5DEC19F0E552E552E55270
:100620000C0EE15C02E2E16AE552E16EE552E7CFD1
:10063000D9FF1200D9CFE6FFE1CFD9FF120EE12694
:10064000D9CFE9FFDACFEAFF200EEE6E480EEE6E4C
:10065000540EEE6EEE6E500EEE6E2F0EEE6E310EEE
:10066000EE6E2E0EEE6E310EEE6E0D0EEE6E0A0E6C
:10067000EE6E480EEE6E6F0EEE6E730EEE6E740E34
:10068000EE6E3A0EEE6E200EEE6EEE6A010EE66E25
:10069000D9CFE6FFDACFE6FF5DEC19F0E552E5527F
:1006A000E552010EE66E7C0EE66E010EE66E5DEC26
:1006B00019F0E552E552E552120EE15C02E2E16A00
:1006C000E552E16EE552E7CFD9FF1200D9CFE6FF40
:1006D000E1CFD9FF470EE126D9CFE9FFDACFEAFF14
:1006E0000D0EEE6E0A0EEE6E430EEE6E6F0EEE6E99
:1006F0006E0EEE6EEE6E650EEE6E630EEE6E740EA8
:10070000EE6E690EEE6E6F0EEE6E6E0EEE6E3A0EC1
:10071000EE6E200EEE6E6B0EEE6E650EEE6EEE6EF3
:10072000700EEE6E2D0EEE6E610EEE6E6C0EEE6EB7
:10073000690EEE6E760EEE6E650EEE6E0D0EEE6EC0
:100740000A0EEE6E430EEE6E6F0EEE6E6E0EEE6ED7
:10075000740EEE6E650EEE6E6E0EEE6E740EEE6E36
:100760002D0EEE6E4C0EEE6E650EEE6E6E0EEE6E95
:10077000670EEE6E740EEE6E680EEE6E3A0EEE6E54
:10078000200EEE6E300EEE6E0D0EEE6E0A0EEE6E5A
:10079000430EEE6E610EEE6E630EEE6E680EEE6E42
:1007A000650EEE6E2D0EEE6E430EEE6E6F0EEE6E5D
:1007B0006E0EEE6E740EEE6E720EEE6E6F0EEE6ECE
:1007C0006C0EEE6E3A0EEE6E200EEE6E6E0EEE6E4D
:1007D0006F0EEE6E2D0EEE6E630EEE6E610EEE6E11
:1007E000630EEE6E680EEE6E650EEE6E0D0EEE6E24
:1007F0000A0EEE6EEE6A010EE66ED9CFE6FFDACF94
:10080000E6FF5DEC19F0E552E552E552010EE66EA9
:10081000800EE66E020EE66E5DEC19F0E552E552D2
:10082000E552470EE15C02E2E16AE552E16EE55213
:10083000E7CFD9FF1200D9CFE6FFE1CFD9FF030EF2
:10084000E126730EF36E010EF3CFDBFF020EDB6ABF
:10085000080EE66E4DEC1BF0E552DF6AA8DE0A0ECC
:10086000E66E4DEC1BF0E552BAD8040EE66E4DEC88
:100870001BF0E5520AD8030EE15C02E2E16AE552A0
:10088000E16EE552E7CFD9FF120005D834D83FD842
:10089000D1DEBFEF04F0D9CFE6FFE1CFD9FF140ED0
:1008A000E126010E146E2B0E156E166A14C0E6FFBB
:1008B00015C0E6FF16C0E6FFD9CFE6FFDACFE6FFA8
:1008C000DCEC1CF0176E050EE15E1750010EE66EB3
:1008D000D9CFE6FFDACFE6FF5DEC19F0E552E5523D
:1008E000E552140EE15C02E2E16AE552E16EE55286
:1008F000E7CFD9FF1200010EE66E3E0EE66E010E46
:10090000E66E5DEC19F0E552E552E5521200D9CFE2
:10091000E6FFE1CFD9FF280EE1260101A851E66EDE
:10092000E66AA00EE66E010EE66EE00E146E2A0E6A
:10093000156E166A14C0E6FF15C0E6FF16C0E6FF86
:10094000D9CFE6FFDACFE6FFDCEC1CF0176E090E1C
:10095000E15E1750010EE66ED9CFE6FFDACFE6FF73
:100960005DEC19F0E552E552E552280EE15C02E239
:10097000E16AE552E16EE552E7CFD9FF1200D9CF27
:10098000E6FFE1CFD9FF140EE126CE0E146E2A0E3B
:10099000156E166A14C0E6FF15C0E6FF16C0E6FF26
:1009A000D9CFE6FFDACFE6FFDCEC1CF0176E050EC0
:1009B000E15E1750010EE66ED9CFE6FFDACFE6FF13
:1009C0005DEC19F0E552E552E552140EE15C02E2ED
:1009D000E16AE552E16EE552E7CFD9FF1200D9CFC7
:1009E000E6FFE1CFD9FF280EE126A00EE66E010E4C
:1009F000E66E86EC1CF0E552E552F3CF27FFF4CF0C
:100A000028FF6D0E0F012725256F000E2821266F68
:100A100025CFE6FF26CFE6FFBE0E146E2A0E156E1A
:100A2000166A14C0E6FF15C0E6FF16C0E6FFD9CF70
:100A3000E6FFDACFE6FFDCEC1CF0176E070EE15E96
:100A40001750010EE66ED9CFE6FFDACFE6FF5DEC78
:100A500019F0E552E552E552280EE15C02E2E16A46
:100A6000E552E16EE552E7CFD9FF1200D9CFE6FF9C
:100A7000E1CFD9FF310EE1262F0EDB6A300EDB6AA3
:100A8000010EE66E1BEC19F0E552E76E2D0EE7CF76
:100A9000DBFFDB507B0801E0F3D7010EE66E1BECB9
:100AA00019F0E552E76E2D0EE7CFDBFFDB50220891
:100AB00001E0F3D72F0EDB6A080EF36E2F0EDBCFAB
:100AC000F4FFF350F45C10E2010EE66E1BEC19F03B
:100AD000E552E76E2D0EE7CFDBFFDB50220801E089
:100AE000F3D72F0EDB2AE8D72F0EDB6A010EE66E56
:100AF0001BEC19F0E552E76E2E0EE7CFDBFFDB5063
:100B0000220812E0D9CF14F0DACF15F02F0EDB5007
:100B10000F011424E96E000E1520EA6E2E0EDBCFB5
:100B2000EFFF2F0EDB2AE2D7D9CF14F0DACF15F082
:100B30002F0EDB500F011424E96E000E1520EA6E13
:100B4000EF6AD9CFE6FFDACFE6FFAB0E146E2A0EBE
:100B5000156E166A14C0E6FF15C0E6FF16C0E6FF64
:100B600081EC1DF0176E050EE15E1750D9CFE6FF40
:100B7000DACFE6FFF8EC1BF0E552E552F3CF2AFF9F
:100B8000F4CF2BFF2ACFE6FF2BCFE6FF930E146E98
:100B90002A0E156E166A14C0E6FF15C0E6FF16C0D1
:100BA000E6FF81EC1DF0176E050EE15E1750DFCFFA
:100BB00029FFE66AD9CFE6FFDACFE6FF5DEC19F050
:100BC000E552E552E552D9CFE6FFDACFE6FFA00EB7
:100BD000E66E010EE66E0101A851E66EE66A570E5A
:100BE000146E2A0E156E166A14C0E6FF15C0E6FFD5
:100BF00016C0E6FF81EC1DF0176E090EE15E17507E
:100C0000310EE15C02E2E16AE552E16EE552E7CFC6
:100C1000D9FF12000F01006B0201006B0101A91D39
:100C200001E1AA1D19E0A9C1E6FFAAC1E6FF4C0E29
:100C3000146E2A0E156E166A14C0E6FF15C0E6FF84
:100C400016C0E6FF000EE66E020EE66EDCEC1CF04F
:100C5000176E070EE15E17500101AB1D01E1AC1DDF
:100C600039E00F012F0E006FABC1E6FFACC1E6FF0C
:100C7000410E146E2A0E156E166A14C0E6FF15C0DA
:100C8000E6FF16C0E6FF000EE66E0F0EE66EDCEC29
:100C90001CF0176E070EE15E1750000EE66E0F0E89
:100CA000E66E000EE66E020EE66E3C0E146E2A0E26
:100CB000156E166A14C0E6FF15C0E6FF16C0E6FF03
:100CC000000EE66E020EE66EDCEC1CF0176E090EEE
:100CD000E15E17500101AD1D01E1AE1D39E00F01CC
:100CE0002F0E006FADC1E6FFAEC1E6FF310E146EF0
:100CF0002A0E156E166A14C0E6FF15C0E6FF16C070
:100D0000E6FF000EE66E0F0EE66EDCEC1CF0176ED2
:100D1000070EE15E1750000EE66E0F0EE66E000E37
:100D2000E66E020EE66E3C0E146E2A0E156E166A04
:100D300014C0E6FF15C0E6FF16C0E6FF000EE66E23
:100D4000020EE66EDCEC1CF0176E090EE15E175029
:100D50000101AF1D01E1B01D39E00F012F0E006F41
:100D6000AFC1E6FFB0C1E6FF260E146E2A0E156E67
:100D7000166A14C0E6FF15C0E6FF16C0E6FF000EB7
:100D8000E66E0F0EE66EDCEC1CF0176E070EE15EF1
:100D90001750000EE66E0F0EE66E000EE66E020EA7
:100DA000E66E3C0E146E2A0E156E166A14C0E6FF2F
:100DB00015C0E6FF16C0E6FF000EE66E020EE66EF8
:100DC000DCEC1CF0176E090EE15E17500101B11D3D
:100DD00001E1B21D39E00F012F0E006FB1C1E6FF36
:100DE000B2C1E6FF1B0E146E2A0E156E166A14C0F1
:100DF000E6FF15C0E6FF16C0E6FF000EE66E0F0E1A
:100E0000E66EDCEC1CF0176E070EE15E1750000E6C
:100E1000E66E0F0EE66E000EE66E020EE66E3C0EFD
:100E2000146E2A0E156E166A14C0E6FF15C0E6FF92
:100E300016C0E6FF000EE66E020EE66EDCEC1CF05D
:100E4000176E090EE15E17500101B31D01E1B41DDB
:100E500039E00F012F0E006FB3C1E6FFB4C1E6FF0A
:100E6000100E146E2A0E156E166A14C0E6FF15C019
:100E7000E6FF16C0E6FF000EE66E0F0EE66EDCEC37
:100E80001CF0176E070EE15E1750000EE66E0F0E97
:100E9000E66E000EE66E020EE66E3C0E146E2A0E34
:100EA000156E166A14C0E6FF15C0E6FF16C0E6FF11
:100EB000000EE66E020EE66EDCEC1CF0176E090EFC
:100EC000E15E17500101B51D01E1B61D39E00F01CA
:100ED0002F0E006FB5C1E6FFB6C1E6FF050E146E1A
:100EE0002A0E156E166A14C0E6FF15C0E6FF16C07E
:100EF000E6FF000EE66E0F0EE66EDCEC1CF0176EE1
:100F0000070EE15E1750000EE66E0F0EE66E000E45
:100F1000E66E020EE66E3C0E146E2A0E156E166A12
:100F200014C0E6FF15C0E6FF16C0E6FF000EE66E31
:100F3000020EE66EDCEC1CF0176E090EE15E175037
:100F40000101B71D01E1B81D39E00F012F0E006F3F
:100F5000B7C1E6FFB8C1E6FFFA0E146E290E156E92
:100F6000166A14C0E6FF15C0E6FF16C0E6FF000EC5
:100F7000E66E0F0EE66EDCEC1CF0176E070EE15EFF
:100F80001750000EE66E0F0EE66E000EE66E020EB5
:100F9000E66E3C0E146E2A0E156E166A14C0E6FF3D
:100FA00015C0E6FF16C0E6FF000EE66E020EE66E06
:100FB000DCEC1CF0176E090EE15E1750120026ECF7
:100FC00000F039DC36EF05F0D9CFE6FFE1CFD9FFED
:100FD000FE0EDBCFA8F126EC00F02DDC47DD2ACF9A
:100FE000F3FF2BCFF4FF00D0E552E7CFD9FF12007B
:0A0FF000948C948E958C958E12005F
:060FFA0039EC0DF0FB0EC6
:10100000DBCFF3FFDB06F35000090AE087EC0DF0BD
:10101000FA0EF2EC0DF0F3E1151CF1E1010E01D036
:10102000000E68EF0DF039EC0DF03B0EE12402E309
:10103000E168E652E16E010EDB6A020EDB6AF90E30
:10104000DBCFF6FFFA0EDBCFF7FFFB0EDBCFF8FFAF
:101050000800F550DF6EDF5002E18CEF0CF0250E3A
:10106000DF5C02E07FEF0CF0030EDB6A040EDB6A4C
:10107000050EDB6A060EDB6A070EDB6AA1EC0CF0DC
:101080002D0EDF5C0CE02B0EDF5C09E0200EDF5C38
:1010900006E0230EDF5C03E0300EDF5C1AE1DF5078
:1010A000300A14E0130A0FE0030A0AE00B0A05E015
:1010B000060AE4E1030EDB80E1D7030EDB82DED714
:1010C000030EDB84DBD7030EDB86D8D7030EDB8869
:1010D000D5D72A0EDF5C1BE19DEC0CF0EBEC0CF09D
:1010E00010E0030EDB8008680968130EDBCF0DF0FB
:1010F000140EDBCF0EF089EC1EF0040E06C0DBFFF1
:1011000003D0130ED4EC0CF0A1EC0CF00BD0090EB4
:10111000DB6A42EC0DF003E0B6EC0DF0FAD7090EF5
:10112000D4EC0CF0030EDBB0DB982E0EDF5C1BE181
:10113000A1EC0CF02A0EDF5C0BE19DEC0CF0EBEC6B
:101140000CF003E1130E26EC0DF0A1EC0CF00BD02B
:10115000090EDB6A42EC0DF003E0B6EC0DF0FAD7B5
:10116000090E26EC0DF0680EDF5C07E1A1EC0CF037
:10117000680EDF5C1DE1030E18D0740EDF5C17E013
:101180007A0EDF5C14E0480EDF5C06E0540EDF5C94
:1011900003E05A0EDF5C02E1020E07D06C0EDF5C4A
:1011A00003E06A0EDF5C04E1010E79EC0DF0C9DBAF
:1011B000DF506E0A01E17FD31E0A01E192D1200ABD
:1011C00001E18FD13F0A01E149D11A0A01E146D17B
:1011D0000D0A01E143D1200A01E140D13A0A01E1BF
:1011E0003DD1200A01E13AD1260A01E135D10D0AAB
:1011F00001E132D11A0A01E1D9D0200A4AE0300ACD
:101200001FE0460A0EE0250A01E083D3D950F90F0A
:10121000E96EFF0EDA20EA6E010EEE5E000EEE5A67
:10122000EE5A87EC0DF0250EE66E95DB03E1151CFA
:1012300001E169D383EC0DF001E26BD3DB2A69D3C2
:10124000080EDB6A040EDB50010806E2040EDB0424
:101250004BEC0DF0DB508BDB080EDB5009E0030E8E
:10126000DB50010B05E172DB01E04DD3080EDB6AB8
:1012700064DBEFCFDFFFFBEC0DF003E1151C01E1B8
:1012800042D383EC0DF001E3DB2A60DB01E141D3C3
:101290003AD3070EDB5002080FE1C7EC0DF0030E46
:1012A0008EEC0DF00E0EEECFDBFF0F0EEECFDBFF60
:1012B000100EEECFDBFF20D0F70EDBCF17F0F80ECD
:1012C000DBCF18F0020E175E000E185AF70E17C08B
:1012D000DBFFF80E18C0DBFF17C0E9FF18C0EAFFFC
:1012E0007EEC0DF0166A0E0E14C0DBFF0F0E15C05B
:1012F000DBFF100E16C0DBFF0E0EDBCFE6FF0F0E7E
:10130000DBCFE6FF100EDBCFE6FFB7EC1CF0E552BB
:10131000E552E552130E07C0DBFF140E08C0DBFFD9
:10132000060EDB5005E0130EC2EC0DF001E26ADBA5
:10133000E6EC0DF002E2130E37DBA9EC0DF006E04F
:10134000040EC2EC0DF002E2050E2EDB030EDBB044
:1013500005D0FCDA01E0D7D2080EDB6A090EDB6AA1
:101360000E0EDBCFF6FF0F0EDBCFF7FF100EDBCF3D
:10137000F8FF0800F550DF6EDF5014E0ECEC0DF0E4
:1013800011E2FBEC0DF003E1151C01E1BCD2BBDB6B
:1013900001E3DB2A090EDB2AD9500E0FE96E000E9D
:1013A000CBDBE7D7D3DA01E1B4D2ADD2C6DA110E86
:1013B000EECFDBFF120EEDCFDBFF110EDBCFE6FF32
:1013C000120EDBCFE6FF86EC1CF0E552E552130E61
:1013D000F3CFDBFF140EF4CFDBFF060EDB5004E08F
:1013E000130ED0DB01E20EDBE6EC0DF002E2130E91
:1013F000DBDAAFDB05E0040EC5DB02E2050ED4DA72
:10140000030EDBB005D0A2DA01E07DD2080EDB6A64
:10141000090EDB6A110EDBCFE9FF120EDBCFEAFF0C
:10142000EFCFDFFFDF5014E0D7DB12E2E4DB03E1B4
:10143000151C01E168D267DB01E3DB2A090EDB2A18
:10144000110EDB2ADBCFE9FF120EE8E3DB2AE6D739
:101450007DDA01E15ED257D2030EDB8E070EDB048C
:1014600010E195DB040E5ADB0A0EEECFDBFF0B0E0C
:10147000EECFDBFF0C0EEECFDBFF0D0EEECFDBFF72
:101480006CD0070EDB5003082CE1030EDBAE0DD051
:10149000B2DA020E76DAEFCF14F0156A166A176A1E
:1014A00014AE39D01568166835D0F70EDBCF15F0BD
:1014B000F80EDBCF16F0020E155E000E165AF70E70
:1014C00015C0DBFFF80E16C0DBFF15C0E9FF16C024
:1014D000EAFFEFCF14F00A0E14C0DBFF0B0EDB6A3D
:1014E00038D0070EDB50020809E1030EDBAE04D052
:1014F00059DB16AE10D00ED055DB0DD0030EDBAE8F
:1015000012D079DA020E3DDAF9DA166A176A15AEE8
:1015100002D016681768E2DA0C0E16C0DBFF0D0E5B
:1015200017C0DBFF1AD0F70EDBCF16F0F80EDBCFBB
:1015300017F0020E165E000E175AF70E16C0DBFFEC
:10154000F80E17C0DBFF16C0E9FF17C0EAFFD6DAB6
:10155000C5DA0C0EDB6A0D0EDB6A060EDB5005E108
:10156000010EF36E050EF3CFDBFF150EDB6A160ED0
:10157000DB6AD950370F146E000EDA20156E390E63
:1015800014C0DBFF3A0E15C0DBFF380EDB6A080E15
:10159000DB6A0A0EAEDADF50780A12E0200A10E0A9
:1015A000280A0CE0200A0AE03F0A06E00D0A02E0E1
:1015B000200A08E1020E05D0080E03D0080EDF262F
:1015C000100E97DA030EDBBE02D0DB92DB94DB5009
:1015D000800B24E08ADAD890030EEB50000A08E66C
:1015E000000EEE5C000EEE58000EEE58000EEE58A7
:1015F00015E213DA0B680C680D680E6851EC1EF0EA
:101600000A0E02C0DBFF0B0E03C0DBFF0C0E04C092
:10161000DBFF0D0E05C0DBFF2D0E08D0030EDBA295
:1016200002D02B0E03D0DBA408D0200EF36E170ED1
:10163000F3CFDBFF150EDB2A02D0170EDB6A050E97
:10164000DB5003E1B7D901E189D0760E146E3E0E6E
:10165000156E000E166E070EDBCF17F0186A196AAA
:101660001A6A17C00BF018C00CF019C00DF01AC0A0
:101670000EF0D3D9B6EC1EF014500224F36E1550C0
:101680000320F46E16500420F86EF4CFF7FFF3CF6A
:10169000F6FF0800090EF5CFDBFF580EDF5C0FE107
:1016A000610EF36E090E7BD90AE3200E146E090E4B
:1016B000DBCFE7FF1450E75E090EE7CFDBFF070E35
:1016C000DBCF14F0156A166A176A0FDA14C00BF034
:1016D00015C00CF016C00DF017C00EF0EECF06F0DE
:1016E000EECF07F0EECF08F0EFCF09F0B6EC1EF02A
:1016F00009C0EDFF08C0EDFF07C0EDFF06C0EFFF1A
:10170000390EDBCFE9FFDB063A0EDBCFEAFF01E261
:10171000DB06090EDBCFEFFF150EDB2A4BD995E177
:10172000030EDBA61DD06F0EDF5C06E1C1D918E306
:10173000150EDB285BDA14D0780EDF5C09E0580E5A
:10174000DF5C06E0620EDF5C03E0420EDF5C08E176
:10175000020EF36E160EF3CFDBFF02D0150EDB6A1E
:10176000030EDB50100B0EE0040EDBCF14F0050E61
:10177000DB50D880145406E2060EDB5003E1040E61
:10178000DB5034DA95D90AE2050EDBCFE7FF150E00
:10179000DB50E75E050EE7CFDBFF02D0050EDB6A0C
:1017A000040EDBCF14F0160E45D9D880145414E281
:1017B000160EDBCFE6FF150EDBCFE6FF040EDBCF08
:1017C000E6FF050EDB50E552E75CE552D880E754B2
:1017D000E552D880E7545FD9030EDB50010B0BE1D3
:1017E000080EDB5008E0B2D801E08DD0080EDB50C7
:1017F000BED8080EDB6A170EDB5007E088D9170E3B
:10180000F1D903E1151C01E17ED0160EDB5016E084
:101810007ED9300EE66E9FD802E1151C74E077D9B0
:10182000DFCFE6FF0FEC1EF0E552E552E552F4CFB4
:1018300015F00001F31C02E1151C65E0050EDBCF7D
:1018400014F0160EDB50D880145409E2050EDBCFDD
:10185000E7FF160EDB50E75E050EE7CFDBFF300E2D
:10186000E66E050ECBD94FE1390EDB2ADBCFE9FF5F
:101870003A0E01E3DB2ADBCFEAFF090EEFCFDBFFF5
:10188000DB500EE044D9090EADD902E1151C3BE056
:10189000390EDB2ADBCFE9FF3A0EEDE3DB2AEBD78B
:1018A00055D831E1160EDBCFE6FF080EC3D8E5525E
:1018B000E7245DD82ED0070EDB50030A1CE0010A96
:1018C00014E0030A07E07BD9DBCFEEFF020EDBCF8B
:1018D000EDFF1FD0F5D8196A17AE02D01868196845
:1018E0002CD8BCD819C0EEFF14D0EAD817BE18689F
:1018F00024D8B4D80ED063D9DBCFEFFF0AD07BD980
:1019000005E1151C03E1F368F46810D0FCD801E38D
:10191000DB2A79D928EF08F0010EDBCF14F0020E94
:10192000DBCF15F014C0F3FF15C0F4FF3B0EE15CF4
:1019300002E2E16AE552E16ECBD029D9020E8EEFC8
:101940000DF061D90800F550DF6E1200200EE66E32
:10195000080EFEEF0DF00FEC1EF0E552E552E552D9
:10196000F3CF14F0F4CF15F00001F31C1200146E45
:10197000156AD950010F4DD91450EE261550ED229D
:101980001200185E000E195AF70E18C0DBFFF80E91
:1019900019C0DBFF18C0E9FF19C0EAFF1200DBCF56
:1019A000F4FFF350F45C1200DB50E76E040EE7CF57
:1019B000DBFF12000A0EDBCF14F00B0EDBCF15F0AD
:1019C0000C0EDBCF16F00D0EDBCF17F014501510F8
:1019D000161017101200130EEECFDBFF140EEDCF12
:1019E000DBFF130EDBCF14F0140EDBCF15F000017C
:1019F000800E15141200F70EDBCF18F0F80EDBCFB7
:101A000019F01200050EDB50E66ED950130F01D904
:101A1000E552E750EE6EED6A12000A0EDBCF06F0DB
:101A20000B0EDBCF07F00C0EDBCF08F00D0EDBCF7B
:101A300009F01200DBCFE6FF150EDBCFE6FF050E47
:101A4000DB50E552E724E552E7241200DB50CED804
:101A5000010EF36E060EF3CFDBFF1200EE50EFCF58
:101A6000EAFFE96E16C0EEFF17C0EEFF18C0EEFFEA
:101A70001200D9CFE6FFDACFE6FFE1CFD9FFE2CF00
:101A8000DAFF1200DFCFE6FFE66AFDEC1EF0E5525A
:101A9000E552F3501200E76E080EE7CFDBFF1200AD
:101AA000EECF14F0EECF15F0EFCF16F0176A12005C
:101AB000050EDBCF14F0150EDB50D8801454120045
:101AC000010EDBCF16F0020EDBCF17F0186A120002
:101AD000E552E5CFDAFFE7CFD9FF12000A0E14C0B6
:101AE000DBFF0B0E15C0DBFF1200D9500A0F09EF08
:101AF0000EF0F36E070EF3CFDBFF1200EECF14F003
:101B0000EFCF15F01200010EDB2A020E1200FC0EC0
:101B1000DBCFE6FFFD0EDBCFE6FF1200145E000E0A
:101B2000155AF70E14C0DBFFF80E15C0DBFF14C00A
:101B3000E9FF15C0EAFF1200DA20EA6EEF2AEECFC5
:101B4000F6FF000EEF22EECFF7FFEF22EECFF8FF09
:101B50001200040EDBCFE6FF130EDB50E552E75C0C
:101B60009ADFDB5004DF060EDB501200090EDB505B
:101B70000A0DF350DF24D00FE76E090EE7CFDBFF2D
:101B8000A1EF0CF0DB50F36E050ECFEF0CF0F70E6B
:101B9000DBCF14F0F80EDBCF15F01200DFCFE6FF3D
:101BA000ABEF0CF028DF030EECDE50EF0DF0FDEC98
:101BB00007F0E552E552E552E55200091200BDDE9C
:101BC000EE50EFCFEAFFE96E010E1200130EDB506C
:101BD000F36E040ECFEF0CF0040EDB50F36E090E23
:101BE000CFEF0CF0DBCFE6FFABEF0CF0E76E050EAE
:101BF000E7CFDBFF12008BDFCEEF0DF0DBCFE6FF90
:101C000086DFD7EF0DF0D950F90FE96EFF0E9CEF8C
:0C1C10000DF0E96E000EDA20EA6E120002
:041C1C008388839A9C
:101C200012008398838A12008398839A120001011C
:101C3000D6A102D0808601D08096D6A302D080841F
:101C400001D08094D6A502D0808201D08092D6A700
:101C500002D0808001D080901200D9CFE6FFE1CF82
:101C6000D9FFE652DF6A800E0101D615DF6ED6512C
:101C7000E824D66FDF5003E0010ED611D66FD7DF10
:101C8000E552E552E7CFD9FF1200D9CFE6FFE1CF09
:101C9000D9FFE652DF6A010E0101D615DF6ED6418B
:101CA0007F0BD66FDF5003E0800ED611D66FBFDFFB
:101CB000E552E552E7CFD9FF1200D9CFE6FFE1CFD9
:101CC000D9FF290EE126020EDB6A030EDB6A040E41
:101CD000DB6A050EDB6A0A0EF36E0B0EF3CFDBFF39
:101CE000050EF36E0C0EF3CFDBFF0D0EDB6A1A0E42
:101CF000DB6A1D0EDB6A1E0EDB6A1F0EDB6A200E1E
:101D0000DB6A210EDB6A220EDB6A230EDB6A240EFD
:101D1000DB6A250EDB6A260EDB6A0F01386B9290B8
:101D20009292929492969298929A93808A908990A5
:101D30008992899489968998899A389138933895A7
:101D400038973B993B9B9290929292949296959859
:101D5000959A8080809280948096399139933995B4
:101D60003997399939939380938293849386938892
:101D70009382CE0E146E290E156E166A14C0E6FFFD
:101D800015C0E6FF16C0E6FF81EC1DF0E552E552F6
:101D9000E5528B0E146E290E156E166A14C0E6FFFE
:101DA00015C0E6FF16C0E6FF81EC1DF0E552E552D6
:101DB000E55281A412D0860E146E290E156E166A95
:101DC00014C0E6FF15C0E6FF16C0E6FF81EC1DF06B
:101DD000E552E552E55241DFECD7630E146E290E51
:101DE000156E166A14C0E6FF15C0E6FF16C0E6FFC2
:101DF00081EC1DF0E552E552E552330E146E290ECA
:101E0000156E166A14C0E6FF15C0E6FF16C0E6FFA1
:101E100081EC1DF0E552E552E55281A819D01E0E65
:101E2000146E290E156E166A14C0E6FF15C0E6FF83
:101E300016C0E6FF81EC1DF0E552E552E552D00EEA
:101E4000E66E070EE66E08EC1BF0E552E552E5D7AC
:101E5000ED0E146E280E156E166A14C0E6FF15C03E
:101E6000E6FF16C0E6FF81EC1DF0E552E552E552B3
:101E700081A612D0E80E146E280E156E166A14C0D4
:101E8000E6FF15C0E6FF16C0E6FF81EC1DF0E55247
:101E9000E552E552FADEECD7B30E146E280E156E3D
:101EA000166A14C0E6FF15C0E6FF16C0E6FF81EC17
:101EB0001DF0E552E552E55281A412D0860E146E53
:101EC000290E156E166A14C0E6FF15C0E6FF16C08F
:101ED000E6FF81EC1DF0E552E552E552BEDEECD79F
:101EE000630E146E290E156E166A14C0E6FF15C037
:101EF000E6FF16C0E6FF81EC1DF0E552E552E55223
:101F0000940E146E280E156E166A14C0E6FF15C0E6
:101F1000E6FF16C0E6FF81EC1DF0E552E552E55202
:101F2000A7D7790E146E280E156E166A14C0E6FF38
:101F300015C0E6FF16C0E6FF81EC1DF0E552E55244
:101F4000E55275DE0101D651E66EE66AD651E66EBF
:101F5000E66A570E146E280E156E166A14C0E6FF58
:101F600015C0E6FF16C0E6FF81EC1DF0176E070EE8
:101F7000E15E17501A0EDB6A090EF36E1A0EDBCF04
:101F8000F4FFF350F45C23E268DE640EE66EE66A6A
:101F900008EC1BF0E552E5520101D651E66EE66A07
:101FA000D651E66EE66A2F0E146E280E156E166A6E
:101FB00014C0E6FF15C0E6FF16C0E6FF81EC1DF079
:101FC000176E070EE15E17501A0EDB2AD5D71A0ED0
:101FD000DB6A090EF36E1A0EDBCFF4FFF350F45CEC
:101FE00023E253DE640EE66EE66A08EC1BF0E5526F
:101FF000E5520101D651E66EE66AD651E66EE66A12
:10200000030E146E280E156E166A14C0E6FF15C076
:10201000E6FF16C0E6FF81EC1DF0176E070EE15ECD
:1020200017501A0EDB2AD5D7F9DD040EE66E1EEC2A
:102030001BF0E552F6DD040EE66E1EEC1BF0E552D9
:10204000F3DD040EE66E1EEC1BF0E552EDD7C40E78
:10205000146E270E156E166A14C0E6FF15C0E6FF53
:1020600016C0E6FF81EC1DF0E552E552E55292986C
:1020700080980F01399193803891928038939282A1
:102080003895928438979286A90E146E270E156E95
:10209000166A14C0E6FF15C0E6FF16C0E6FF81EC25
:1020A0001DF0E552E552E552270EDB6A280EDB6A89
:1020B000D00EE66E070EE66E08EC1BF0E552E55218
:1020C000A70E146E270E156E166A14C0E6FF15C013
:1020D000E6FF16C0E6FF81EC1DF0E552E552E55241
:1020E00080B01CD0270EDB2A280E01E3DB2A270E46
:1020F000DBCFE6FF280EDBCFE6FF830E146E270E44
:10210000156E166A14C0E6FF15C0E6FF16C0E6FF9E
:1021100081EC1DF0176E050EE15E1750C9D780B235
:1021200011D0500E146E270E156E166A14C0E6FFFD
:1021300015C0E6FF16C0E6FF81EC1DF0E552E55242
:10214000E55236D080B411D03A0E146E270E156EBB
:10215000166A14C0E6FF15C0E6FF16C0E6FF81EC64
:102160001DF0E552E552E55223D080B611D0230E82
:10217000146E270E156E166A14C0E6FF15C0E6FF32
:1021800016C0E6FF81EC1DF0E552E552E55210D095
:10219000160E146E270E156E166A14C0E6FF15C0D3
:1021A000E6FF16C0E6FF81EC1DF0E552E552E55270
:1021B000D00EE66E070EE66E08EC1BF0E552E55217
:1021C00080B0ADD76A0E146E270E156E166A14C055
:1021D000E6FF15C0E6FF16C0E6FF81EC1DF0E552F4
:1021E000E552E552E5D78098CE0E146E260E156E98
:1021F000166A14C0E6FF15C0E6FF16C0E6FF81ECC4
:102200001DF0E552E552E552D00EE66E070EE66E81
:1022100008EC1BF0E552E55281B0E5D78088F40E5A
:10222000146E260E156E166A14C0E6FF15C0E6FF82
:1022300016C0E6FF81EC1DF0E552E552E552E4D709
:102240000F013869550E386F926E9668966EBD0E06
:10225000146E260E156E166A14C0E6FF15C0E6FF52
:1022600016C0E6FF81EC1DF0E552E552E552250E61
:10227000DBCFE6FF260EDBCFE6FFA60E146E260EA2
:10228000156E166A14C0E6FF15C0E6FF16C0E6FF1D
:1022900081EC1DF0176E050EE15E1750250EDB2A4E
:1022A000260E01E3DB2AD950250FE96EDACFEAFFCB
:1022B0000A0ED880EE54000EED5404E2250EDB6ABF
:1022C000260EDB6A0F01386B926AFA0EE66EE66A3A
:1022D00008EC1BF0E552E5528068FA0EE66EE66AFD
:1022E00008EC1BF0E552E552C2D70101A969AA69C1
:1022F0000101AB69AC690101AD69AE690101AF696A
:10230000B069800E146E260E156E166A14C0E6FFB4
:1023100015C0E6FF16C0E6FF81EC1DF0E552E55260
:10232000E552E66A1BEC19F0E5522A0801E0F9D7FC
:102330005D0E146E260E156E166A14C0E6FF15C0EB
:10234000E6FF16C0E6FF81EC1DF0E552E552E552CE
:10235000640E0101A927000EAA232C0E0101AD274E
:10236000010EAE23900E0101AF27010EB023C80E5F
:102370000101AB27000EAC23ABC1E6FFACC1E6FF09
:102380004B0E146E260E156E166A14C0E6FF15C0AD
:10239000E6FF16C0E6FF81EC1DF0176E050EE15E4C
:1023A000175046EC00F03D0E146E260E156E166AA0
:1023B00014C0E6FF15C0E6FF16C0E6FF81EC1DF075
:1023C000E552E552E552020EE66E4DEC1BF0E55289
:1023D000020EE66EE4EC07F0E552040EF3CFDBFFED
:1023E000050EF4CFDBFF040EDBCF14F0050EDBCFC0
:1023F00015F00101AB51141802E1AC51151811E1AF
:10240000170E146E260E156E166A14C0E6FF15C060
:10241000E6FF16C0E6FF81EC1DF0E552E552E552FD
:1024200010D0F00E146E250E156E166A14C0E6FF5D
:1024300015C0E6FF16C0E6FF81EC1DF0E552E5523F
:10244000E5525FD7D10E146E250E156E166A14C0B4
:10245000E6FF15C0E6FF16C0E6FF81EC1DF0E55271
:10246000E552E552AF0E0101AB6FAC6B320E0101CC
:10247000AB25AB6F000EAC21AC6F46EC00F03D0E0F
:10248000146E260E156E166A14C0E6FF15C0E6FF20
:1024900016C0E6FF81EC1DF0E552E552E552020E52
:1024A000E66E4DEC1BF0E552020EE66EE4EC07F032
:1024B000E552040EF3CFDBFF050EF4CFDBFF040E75
:1024C000DBCF14F0050EDBCF15F00101AB51141872
:1024D00002E1AC51151810E1AC0E146E250E156E0C
:1024E000166A14C0E6FF15C0E6FF16C0E6FF81ECD1
:1024F0001DF0E552E552E552B9D7010EE66EE4EC67
:1025000007F0E552060EF3CFDBFF070EF4CFDBFF3B
:10251000060EDBCFE6FF070EDBCFE6FF940E146E50
:10252000250E156E166A14C0E6FF15C0E6FF16C02C
:10253000E6FF81EC1DF0176E050EE15E1750DDD74A
:10254000290EE15C02E2E16AE552E16EE552E7CF75
:04255000D9FF12009D
:0C2554002020494F5420504C4154464F69
:10256000524D20200041505349532020534F4C5589
:1025700054494F4E53004920616D20776F726B694B
:102580006E670A0054696D65722054696D654F75F8
:10259000740A0D00756E4461746146726F6D466910
:1025A000656C6434203D2025640A0D005465737405
:1025B0006564204F4B2C205468616E6B20796F75D9
:1025C00020666F72205465737465642E2E2E0A0D7A
:1025D0000057616974696E6720466F7220426C759E
:1025E000746F6F746820446174612E2E2E0A0D0082
:1025F0004552524F523A20546573746564204E4FD1
:102600004B202D2044617461204E6F74204D617405
:10261000636865640A0D00546573746564204F4BEC
:102620003A205468616E6B20796F7520666F722056
:1026300054657374696E672E2E2E0A0D000A0D55AF
:10264000706C6F616465642E2E2E000A0D55706CDF
:102650006F6164696E672025642E2E2E00446174BC
:10266000612052656365697665642046726F6D20EE
:10267000426C7565746F6F7468202E2E2E0A0D00E3
:102680004E6974696E2057616974696E6720466F80
:102690007220426C7565746F6F7468204461746158
:1026A0002E2E2E0A0D00497465726174696F6E20BA
:1026B0004E756D626572202564200A0D004D7920EB
:1026C000466972737420436F6465200A0D00737746
:1026D0005F454D455247454E43595F535749544313
:1026E0004820776173204E4F542050524553534534
:1026F000440A0D0073775F454D455247454E435997
:102700005F535749544348207761732050524553D3
:102710005345440A0D00526F626F742053746F70FA
:102720000A0D0073775F5249474854207761732040
:10273000505245535345440A0D0073775F4C45464C
:10274000542077617320505245535345440A0D007D
:1027500073775F4241434B57415244207761732066
:10276000505245535345440A0D0073775F464F520C
:10277000574152442077617320505245535345448A
:102780000A0D000A0D48756D616E204964656E740E
:10279000696669656420616E6420636F756E746537
:1027A000642025640A0D002E004261736963207362
:1027B000657474696E677320636F6D706C657465A2
:1027C000640A0D004E6974696E20456E7465726905
:1027D0006E6720696E746F2061206C6F6F7020745B
:1027E0006F20636865636B20746865207377697414
:1027F00063682070726573736564207374617465B7
:102800000A0D00416E7469436C6F636B20756368D9
:10281000537465707065724D6F746F725F315F5382
:10282000746174757320256420307825780A00431C
:102830004C4F434B20756368537465707065724DDF
:102840006F746F725F315F537461747573202564A8
:1028500020307825780A0075636853746570706558
:10286000724D6F746F725F315F5374617475732052
:10287000256420307825780A00537465707065727D
:10288000204D6F746F72202D20496E6D6F766964D4
:10289000750A0D004D6F746F72204E6F77204D6F6B
:1028A00076696E6720746F776172647320456E6419
:1028B0000A0D00456E64205265616368656420738B
:1028C0006F207374617274696E6720746F206D6F0E
:1028D0007665204261636B20746F77617264732048
:1028E00053746172740A0D00534D412E005374618C
:1028F00072742053776974636820776173207072F3
:102900006573736564202D20496E6974696174690B
:102910006E6720746865206C6F6769630A00507287
:10292000657373205374617274205377697463689C
:102930000A0D0057616974696E6720666F722074B2
:10294000686520446F63746F7220746F20707265C5
:1029500073732053746172742053776974636820B1
:102960000A0D004D6F746F72205265616368656473
:102970002074686520537461727420706F73697479
:10298000696F6E0A0D00534D432E004966204D6F4E
:10299000746F7220776173206E6F7420696E20737C
:1029A0007461727420706F736974696F6E207468DB
:1029B000656E206D6F7665206D6F746F7220746F19
:1029C00077617264732053746172740A0D004272ED
:1029D000696E67696E67204D6F746F7220546F77F0
:1029E00061726473205374617274204C696D6974F0
:1029F000205377697463680A0D00266669656C6404
:102A0000383D256400266669656C64373D256400A1
:102A1000266669656C64363D256400266669656CCA
:102A200064353D256400266669656C64343D256423
:102A300000266669656C64333D2564002573257343
:102A400000266669656C64323D256400266669650A
:102A50006C64313D25640043757272656E74205656
:102A6000616C756520696E20746865204669656CC7
:102A70006420256420206F66204368616E6E656C5B
:102A8000206E756D62657220257320697320257331
:102A90000A0D0067756E4461746146726F6D466918
:102AA000656C64733D2025640A0D00756368666972
:102AB000656C64446174613D2025730A0D004154C6
:102AC0002B43495053454E443D25640D0A000D0AE1
:102AD0000D0A4163636570743A202A2F2A0A0D009B
:102AE0002F6368616E6E656C732F25732F66696541
:102AF0006C64732F25642F6C6173742E6A736F6E10
:102B0000004745542068747470733A2F2F00256471
:102B10000044657669636520697320636F6E6E6536
:102B20006374656420746F206E6574776F726B0ACE
:062B30000D002E2E2E0008
:0A2B3600D9CFE6FFE1CFD9FFFE0E74
:102B4000DBCFE6FF3BD8E552FD0EDB50010A11E07A
:102B5000010A01E026D0C09E020EC210C26EC2B2AF
:102B6000FED7C450146E156A14C0F3FF15C0F4FFED
:102B700018D0C08E020EC210C26EC2B2FED7C450B0
:102B8000166E176A16C017F0166AC3500001162495
:102B9000146E000E1720156E14C0F3FF15C0F4FF5D
:102BA00000D0E552E7CFD9FF1200010EC26E800EB1
:102BB000C16E280EC06EC050C06E1200D9CFE6FFA5
:102BC000E1CFD9FFFE0EDB501F0A01E160D1010AFF
:102BD00001E156D1030A01E14CD1010A01E143D1DF
:102BE000070A01E136D1010A01E12BD1030A01E113
:102BF0001FD1010A01E114D10F0A01E107D1010A35
:102C000001E1FBD0030A01E1EFD0010A01E1E4D0C8
:102C1000070A01E1D8D0010A01E1CED0030A01E19F
:102C2000C3D0010A01E1B9D01F0A01E1ACD0010A09
:102C300001E19ED0030A01E192D0010A01E187D0AF
:102C4000070A01E17BD0010A71E0030A67E0010A8B
:102C50005EE00F0A51E0010A45E0030A39E0010A8B
:102C60002EE0070A21E0010A16E0030A0BE0010A40
:102C700001E015D192800F013881010EC26EC25061
:102C8000C26E0DD192820F013883010EC26EC25006
:102C90000409C26E04D192840F013885010EC26E00
:102CA000C2500809C26EFBD092860F01080E386F21
:102CB000010EC26EC25008090409C26EF0D0928A99
:102CC0000F01388B010EC26EC2501009C26EE7D0E0
:102CD00096800F013C81010EC26EC250100904099A
:102CE000C26EDDD096820F013C83010EC26EC250CF
:102CF00010090809C26ED3D096840F013C85010EDD
:102D0000C26EC250100908090409C26EC8D00F0172
:102D1000040E396FC2502009C26EC1D00F01080ED7
:102D2000396FC25020090409C26EB9D00F01020EDA
:102D3000396FC25020090809C26EB1D00F01100EC0
:102D4000396FC250200908090409C26EA8D00F01CA
:102D5000010E396FC25020091009C26EA0D00F01B8
:102D6000200E396FC250200910090409C26E97D095
:102D700094840F013A85010EC26EC25020091009D9
:102D80000809C26E8CD00F01080E3A6FC25020099C
:102D9000100908090409C26E82D00F01100E3A6FA3
:102DA000400EC210C26E7BD00F01200E3A6F400E53
:102DB000C2100409C26E73D00F01400E3A6FC210E8
:102DC0000809C26E6CD00F01800E3A6F400EC2101F
:102DD00008090409C26E63D00F01010E3B6F400E5B
:102DE000C2101009C26E5BD00F01020E3B6F400E85
:102DF000C21010090409C26E52D00F01040E3B6FBD
:102E0000400EC21010090809C26E49D00F01080E09
:102E10003B6F400EC210100908090409C26E3FD072
:102E20000F01100E3B6F400EC2102009C26E37D04A
:102E30000F01200E3B6F400EC21020090409C26E24
:102E40002ED00F01400E3B6FC21020090809C26E40
:102E500026D00F01800E3B6F400EC21020090809DA
:102E60000409C26E1CD0400EC21020091009C26EA7
:102E700016D0400EC210200910090409C26E0FD0EE
:102E8000400EC210200910090809C26E08D0400E79
:102E9000C2102009100908090409C26E00D0010EF1
:0A2EA00000D0E552E7CFD9FF120081
:062EAA00D9CFE6FFE1CFE5
:102EB000D9FF020EE126DE6ADD6ADECF14F0DDCF37
:102EC00015F0FD0EDBCF16F0FE0EDBCF17F0145021
:102ED000165C1550175806E30000DF2A010E01E3C7
:102EE000DB2AEBD7020EE15C02E2E16AE552E16E19
:102EF000E552E7CFD9FF1200D9CFE6FFE1CFD9FFE6
:102F0000FD0EDBCFE9FFFE0EDBCFEAFFEF500FE057
:102F1000FD0EDBCFE9FFFE0EDBCFEAFFEFCFFFF0C8
:102F200077D8FD0EDB2AFE0E01E3DB2AE9D7E55256
:102F3000E7CFD9FF1200D9CFE6FFE1CFD9FFFE0ED0
:102F4000DB5016E00001FFAF02D08C8A01D08C9AD2
:102F5000FFAD02D08C8801D08C98FFAB02D08C865C
:102F600001D08C96FFA902D08C8401D08C9415D00E
:102F70000001FFA702D08C8A01D08C9AFFA502D055
:102F80008C8801D08C98FFA302D08C8601D08C96BF
:102F9000FFA102D08C8401D08C94E552E7CFD9FFF9
:102FA00012008C908C92010EE66EC5DFE552000097
:102FB00000000000060EE66EE66A77DFE552E55295
:102FC0008C82010EE66EE66A08EC1BF0E552E552D3
:102FD0008C92000000000000000000000000E66A83
:102FE000AADFE55200000000000000000000000021
:102FF000060EE66EE66A59DFE552E5528C82010E56
:10300000E66EE66A08EC1BF0E552E5528C9212007F
:103010008C808C92010EE66E8EDFE552060EE66E17
:10302000E66A43DFE552E5520000000000000000C0
:10303000000000008C82010EE66EE66A08EC1BF0D0
:10304000E552E5528C9200000000000000000000F4
:103050000000060EE66EE66A28DFE552E552060E2F
:10306000E66EE66A22DFE552E552E66A64DFE55283
:103070000000000000008C82010EE66EE66A08EC9B
:103080001BF0E552E5528C9212000001200EFF6FFA
:103090008C908C92010EE66E4EDFE552000000002F
:1030A00000000000000000008C82010EE66EE66A5F
:1030B00008EC1BF0E552E5528C9212000F013C9196
:1030C0003B9B3B913B933B953B979594959695986D
:1030D000959A95909592010EE66E1EEC1BF0E552C6
:1030E000D4DF00012C0EFF6F5CDF00010C0EFF6FC0
:1030F00058DF0001060EFF6F54DF0001010EFF6F65
:1031000050DF0A0EE66EE66A08EC1BF0E552E55267
:103110001200D9CFE6FFE1CFD9FFFE0EDB50020847
:1031200006E1FD0EDB50C00F0001FF6F05D0FD0E64
:10313000DB50800F0001FF6F34DF0A0EE66EE66A97
:1031400008EC1BF0E552E552E552E7CFD9FF12003B
:103150000001010EFF6F25DF0A0EE66EE66A08EC3D
:103160001BF0E552E55212000001F80EFF6F08EF68
:0231700018F055
:0E317200D9CFE6FFE1CFD9FFFE0EDB50010AF8
:103180001BE0010A01E030D0AC6AAB6AB86A190EE4
:10319000AF6E948C948E0F013A9D3A9FAC98AC849C
:1031A000B896AB8EAC9CAB9CB898B89AAC8AAB88FE
:1031B0009D989D9A9F8A18D0726A716A706A190EDA
:1031C000756E958C958E0F013B9D3B9F7298728416
:1031D0007096718E729C719C7098709A728A7188C8
:1031E000A398A39AA58A00D0F28EF28CE552E7CF7D
:1031F000D9FF1200D9CFE6FFE1CFD9FFFD0EDB509A
:10320000010A0CE0010A01E012D09E98FE0EDB508C
:10321000AD6EACA2FED7AC929E9809D0A498FE0EDB
:10322000DB50736E72A2FED77292A49800D0E55262
:10323000E7CFD9FF1200D9CFE6FFE1CFD9FF020EC9
:10324000E126FE0EDB50010A16E0010A01E029D05A
:103250009E9A9EAAFED7AB50040B03E1AB50020B23
:1032600004E0AB98AE50DF6EAB88AE50DF6E9E9A36
:10327000DF5017D016D0A49AA4AAFED77150040B21
:1032800003E17150020B05E07198010E74CFDBFF72
:103290007188010E74CFDBFFA49A7188DB5001D0D6
:1032A00000D0146E020EE15C02E2E16AE552E16ECA
:1032B0001450E552E7CFD9FF1200D9CFE6FFE1CF96
:1032C000D9FFFC0EDB50010A1EE0010A01E037D0F5
:1032D000FD0EDBCFE9FFFE0EDBCFEAFFEF5012E081
:1032E000E66AFD0EDBCFE9FFFE0EDBCFEAFFEF5013
:1032F000E66E80DFE552E552FD0EDB2AFE0E01E3AD
:10330000DB2AE6D71CD0FD0EDBCFE9FFFE0EDBCFBC
:10331000EAFFEF5013E0010EE66EFD0EDBCFE9FF92
:10332000FE0EDBCFEAFFEF50E66E64DFE552E552BA
:10333000FD0EDB2AFE0E01E3DB2AE5D700D0E552C5
:10334000E7CFD9FF1200D9CFE6FFE1CFD9FF020EB8
:10335000E126FE0EDB50010A1BE0010A01E033D03A
:103360009E9A9E50200B04E10001FD0501E0F9D773
:10337000AB50040B03E1AB50020B04E0AB98AE5032
:10338000DF6EAB88AE50DF6E9E9ADF501CD01BD034
:10339000A49AA450200B04E10001FD0501E0F9D737
:1033A0007150040B03E17150020B05E07198010E9E
:1033B00074CFDBFF7188010E74CFDBFFA49A718894
:1033C000DB5001D000D0146E020EE15C02E2E16A33
:0E33D000E552E16E1450E552E7CFD9FF12002E
:0233DE00DACF44
:1033E000E4FFE2CFDAFFE9CFE4FFEACFE4FFF6CF74
:1033F000E4FFF7CFE4FFF5CFE4FFF3CFE4FFF4CF32
:10340000E4FFFACFE4FF00EE00F0140EE80403E35B
:10341000EECFE4FFFBD700EE14F0070EE80403E361
:10342000EECFE4FFFBD7E652D9CFE6FFE1CFD9FFDD
:10343000E652F2A423D0F2940001FC2B0001FE51CD
:103440000001D880FC5518E2FC6BD59E0001FE6B94
:103450000001010EFD6F840E1B6E250E1C6E1D6A91
:103460001BC0E6FF1CC0E6FF1DC0E6FF81EC1DF09F
:10347000E552E552E55202D0F7EC1DF0E552E55277
:10348000E7CFD9FFE55200EE1AF0070EE80403E398
:10349000E5CFEDFFFBD700EE13F0140EE80403E3D5
:1034A000E5CFEDFFFBD7E5CFFAFFE5CFF4FFE5CFA2
:1034B000F3FFE5CFF5FFE5CFF7FFE5CFF6FFE5CF6B
:1034C000EAFFE5CFE9FFE5CFDAFF110002D85DEFB3
:1034D0000EF044EC1FF0760E146E250E156E166A73
:1034E00014C0E6FF15C0E6FF16C0E6FF81EC1DF034
:1034F000E552E552E5520F01386B396B3A6B3B6B85
:103500003C913C933C95C30E616EF19EE66AB9EC2A
:1035100018F0E552010EE66EB9EC18F0E552D5EC64
:1035200015F05EEC18F0FFEC1DF0010EE66E1EECDF
:103530001BF0E552650E146E250E156E166A14C04A
:10354000E6FF15C0E6FF16C0E6FFC10EE66E020EEE
:10355000E66E6DEC1CF0176E050EE15E1750540E12
:10356000146E250E156E166A14C0E6FF15C0E6FF30
:1035700016C0E6FFD20EE66E020EE66E6DEC1CF093
:10358000176E050EE15E1750E66A010EE66E89ECD5
:1035900018F0E552E552C10EE66E020EE66E7CECC6
:1035A00017F0E552E552E66A020EE66E89EC18F075
:1035B000E552E552D20EE66E020EE66E7CEC17F096
:1035C000E552E552020EE66E1EEC1BF0E5521200CB
:1035D000D9CFE6FFE1CFD9FF040EE126DE6ADD6A2E
:1035E000DECF14F0DDCF15F0400E145C000E155840
:1035F00005E2DF2A010E01E3DB2AF2D7040EE15CCB
:1036000002E2E16AE552E16EE552E7CFD9FF12002E
:10361000D9CFE6FFE1CFD9FFFD0EDBCF14F0DB06FB
:10362000FE0EDBCF15F001E2DB061450151002E0B0
:10363000CFDFF2D7E552E7CFD9FF1200D9CFE6FFAF
:10364000E1CFD9FFE652DF6AFE0EDB50DF5C20E2FD
:10365000640EE66EE66ADCDFE552E552640EE66E65
:10366000E66AD6DFE552E552640EE66EE66AD0DF22
:10367000E552E552640EE66EE66ACADFE552E552AF
:10368000640EE66EE66AC4DFE552E552DF2ADCD757
:10369000E552E552E7CFD9FF1200D9CFE6FFE1CFDF
:1036A000D9FF020EE126DE6ADD6ADECF14F0DDCF3F
:1036B00015F0FE0EDB50166E176A1650145C17508C
:1036C000155809E2020EE66EB9DFE552DF2A010E57
:1036D00001E3DB2AEAD7020EE15C02E2E16AE5528D
:0A36E000E16EE552E7CFD9FF1200BA
:0636EA00D9CFE6FFE1CF9D
:1036F000D9FF020EE126DE6ADD6ADECF14F0DDCFEF
:1037000015F0D890155004E6050E145C000E1558FF
:103710000EE2DECFE9FFDDCFEAFFE80EE926020E7A
:10372000EA22EF6ADF2A010E01E3DB2AE6D7D9504D
:10373000FD0FE96EFF0EDA20EA6EEE50ED101CE090
:10374000FD0EDB06FE0E01E2DB060201E82B0A0E8F
:10375000E85D11E1E86BE92B0A0EE95D0CE1E96B2C
:10376000EA2B0A0EEA5D07E1EA6BEB2B0A0EEB5D32
:1037700002E1EB6BEC2BDBD7EAC2E5F2E9C2E6F241
:10378000E8C2E7F2020EE15C02E2E16AE552E16EB4
:10379000E552E7CFD9FF1200D9CFE6FFE1CFD9FF3D
:1037A000FE0EDBCFEFF20201ED6B640EEF5D0AE37C
:1037B000640EEF5D04E3640EEF5DEF6F01D0EF5137
:1037C000ED2BF3D7EE6B0A0EEF5D0AE30A0EEF5D09
:1037D00004E30A0EEF5DEF6F01D0EF51EE2BF3D74C
:1037E000300EED27EE27EF27E552E7CFD9FF120085
:1037F000FF0EE3CFEAFFE552FF0EE3CFE9FFE5520C
:10380000E66AE66AD9CFE6FFDACFE6FFFC0EE124EE
:10381000D96EFF0EE220DA6EE66AE66AE66A200EEC
:10382000EF5C06E0090EEF5C03E0EF6603D03FD0EB
:10383000EE50F5D72D0EEF5C03E1FF0EE32A03D027
:103840002B0EEF5C01E1EE502F0EEF6424D03A0E08
:10385000EF6021D0D890F90EE336FA0EE336FD0E74
:10386000DECFE3FFFE0EDDCFE3FFD890F90EE336A7
:10387000FA0EE336D890F90EE336FA0EE336FD0E73
:10388000E350DE26FE0EE350DD22300EEE5CDE2637
:10389000000EDD22D9D7FF0EE3CFE8FFE85207E0A4
:1038A000F90EE31EE32AFA0ED8B4E306E31EE5524E
:1038B000E552E552FF0EE3CFDAFFE552FF0EE3CF0C
:1038C000D9FFE552E1CFE9FFE2CFEAFFED52ED5239
:0A38D000EECFF3FFEFCFF4FF12007C
:0638DA00FB0EE3CFF6FF38
:1038E000FC0EE3CFF7FFFD0EE3CFF8FFFE0EE3CFB4
:1038F000E9FFFF0EE3CFEAFFE9CFF3FFEACFF4FFE2
:103900000900F5CFEFFFEE66FBD71200FE0EE3CF06
:10391000E9FFFF0EE3CFEAFFF36AF46AEE5203E039
:10392000F34AF42AFBD71200FE0EE3CFF3FFFF0E9B
:10393000E3CFF4FFFB0EE3CFF6FFFC0EE3CFF7FF80
:10394000FD0EE3CFF8FFF3CFE9FFF4CFEAFF090064
:10395000F5500CE0F550EF5C02E1EE52F8D7EF5273
:1039600003E0F34AF42AE6D7F36AF46A1200FF0E82
:10397000E3CFF8FFE552FF0EE3CFF7FFE552FF0E6E
:10398000E3CFF6FFE552E66AE66AE66A0900F55219
:1039900009E0FD0EE32A05E1FE0EE32A02E1FF0E37
:1039A000E32AF4D7FD0EE3CF07F0FE0EE3CF08F0D5
:0839B000FF0EE3CF09F0120045
:0839B800D9CFE6FFDACFE6FFEC
:1039C000E1CFD9FFE2CFDAFFE652E652E652E65205
:1039D000D950F90F146EFF0EDA20156E020E14C0C6
:1039E000DBFF030E15C0DBFF020EDBCFE6FF030E8D
:1039F000DBCFE6FFF90EDBCFE6FFFA0EDBCFE6FF0B
:103A0000FB0EDBCFE6FFD950FC0FE66EFF0EDA208F
:103A1000E66E13EC08F0146E070EE15C02E2E16A58
:103A2000E552E16E1450F3CFDEFFF4CFDDFFFC0E64
:103A3000DBCFE9FFFD0EDBCFEAFFEF6ADECF14F04C
:103A4000DDCF15F014C0F3FF15C0F4FF040EE15CE8
:103A500002E2E16AE552E16EE552E5CFDAFFE7CF37
:043A6000D9FF120078
:0C3A64000E0EF66E000EF76E000EF86EEF
:103A70000F010900F550316F0900F550326F03E175
:103A8000316701D03DD00900F5502C6F0900F55089
:103A90002D6F0900F5502E6F09000900F550E96EF1
:103AA0000900F550EA6E090009000900F5502F6F72
:103AB0000900F550306F09000900F6CF33FFF7CF4A
:103AC00034FFF8CF35FF2CCFF6FF2DCFF7FF2ECFE9
:103AD000F8FF0F012F5302E1305307E00900F550C2
:103AE000EE6E2F07F8E23007F9D733CFF6FF34CF69
:103AF000F7FF35CFF8FF0F013107000E325BBFD75C
:023B00001200B1
:0E3B0200D9CFE6FFDACFE6FFE1CFD9FFE2CF61
:103B1000DAFFE652E652E652E652D950FB0F146E37
:103B2000FF0EDA20156E14C0DEFFDD6EDECFE6FF7D
:103B3000DDCFE6FFFB0EDBCFE6FFFC0EDBCFE6FFC3
:103B4000FD0EDBCFE6FF36CFE6FF37CFE6FF13EC07
:103B500008F0146E070EE15C02E2E16AE552E16EE4
:103B60001450020EF3CFDBFF030EF4CFDBFF020E87
:103B7000DBCF14F0030EDBCF15F014C0F3FF15C03C
:103B8000F4FF040EE15C02E2E16AE552E16EE55207
:0A3B9000E5CFDAFFE7CFD9FF1200FE
:063B9A00D9CFE6FFE1CFE8
:103BA000D9FFFE0EDB50FB0BBA6EBC6A9E92FE0E76
:103BB000DBAE02D09D8201D09D92BA84E552E7CF60
:103BC000D9FF1200D9CFE6FFE1CFD9FF10D8FE0E02
:103BD000DBCFFEF0E552E7CFD9FF1200D59EF2947D
:103BE0000001FE6B0001FD6B0001FC6B1200D59E15
:103BF0000B0ED76EDC0ED66EF294D58E1200D9CF96
:103C0000E6FFE1CFD9FFE652D56A030ED56EF28EFC
:0E3C1000F28CF28AE552E552E7CFD9FF12009E
:023C1E00D9CFFC
:103C2000E6FFDACFE6FFE1CFD9FFE2CFDAFFFB0E06
:103C3000DBCF14F0FC0EDBCF15F00001800E151465
:103C40001AE1FB0EDBCFE9FFFC0EDBCFEAFFEECF84
:103C5000F3FFEDCFF4FFEE2A000EEF22F3CFE9FFE2
:103C6000F4CFEAFFFD0EDBCFEFFFEF50156AF36EE6
:103C700015C0F4FF10D0FB0EDB50FE0806E1FD0E70
:103C8000DBCFE6FF2DEC1FF005D0FD0EDBCFE6FF0E
:103C900003EC00F0E552E552E5CFDAFFE7CFD9FFBC
:023CA000120010
:0E3CA20006500B02F3CF02F0F4CF03F00C0239
:103CB000F3500326000EF420046E06500D02F3505C
:103CC0000426000EF420056E06500E02F350052661
:103CD00007500B02F3500326F4500422000E052275
:103CE00007500C02F3500426F450052207500D0231
:103CF000F350052608500B02F3500426F450052219
:103D000008500C02F350052609500B02F35005260B
:023D100012009F
:0E3D120009C013F008C012F008500D02F4CFE3
:103D200007F0F3CF06F009500E02F4CF09F0F3CFFD
:103D300008F00D02F3500726F4500822E86A092221
:103D400012500E02F3500726F4500822E86A0922A6
:103D50000EAEAFEF1EF01250085E1350095A13AEAC
:0C3D6000000C0D50085E0E50095A000CBB
:043D6C00056A046A76
:103D7000036A026A200EE76ED890063607360836C8
:103D8000093602360336043605360B50025C0C50F9
:103D900003580D5004580E50055809E30B50025EAD
:103DA0000C50035A0D50045A0E50055A062AE72E9D
:043DB000E4D7120042
:0C3DB400D9CFE6FFE1CFD9FF020EE126D7
:103DC000DE6ADD6ADE6ADD6AD9CFE9FFDACFEAFFB3
:103DD000640ED880EE54000EED5405E3DF2A010E88
:103DE00001E3DB2AF1D7020EE15C02E2E16AE5526F
:0A3DF000E16EE552E7CFD9FF1200A3
:063DFA00F36AF46AFF0EFB
:103E0000E124E96EFF0EE220EA6EED6607D02F0E88
:0E3E1000EF6404D03A0EEF6001D0F32A1200E6
:023E1E00380E5C
:103E2000F36E00EE00F00F0E01D81200EA6002D02F
:0E3E3000EE6AFCD7F350E9601200EE6AFCD790
:023E3E001EEE76
:103E400000F02EEE00F0F86A019C32EC1DF04DEC13
:0A3E50001FF066EC1AF0FBD7120019
:063E5A00FF0EE350ACBABC
:103E600004D0AF6AAB8EAC8A949CACA2FED7AD6E88
:063E7000F36EF46A12007B
:0A3E76003031323334353637383935
:073E800061626364656600E6
:083E8800D70ED36E9B6A040EF5
:043E9000D26E1200DC
:063E9400BA949D92120099
:023E9A00120014
:043E9C000000000022
:103EA000000000000000436F6E74656E742D54793D
:103EB00070653A206170706C69636174696F6E2F10
:103EC000782D7777772D666F726D2D75726C656EB4
:103ED000636F6465640D0A0D0A4163636570743A2B
:073EE000202A2F2A0D0A0021
:093EE7004F4B0000000000000038
:103EF000434F4E4E45435445444552524F520000A5
:103F000000004641494C00000000004C494E4B4522
:103F1000440000006D696E696D756D006D696E69B4
:103F20006D756D38006170692E7468696E677370A5
:103F300065616B2E636F6D0068747470733A2F2F18
:103F40006170692E7468696E67737065616B2E634A
:103F50006F6D2F7570646174653F6170695F6B652B
:103F6000793D006170692E7468696E677370656170
:103F70006B2E636F6D003959535A49314254534F78
:103F8000543256364C4F0031303335363633000517
:103F9000FFFFFFFFFFFFFFFFFFFFFFFFFFFFFFFF31
:023FA000FEFF22
:023FA20000001D
:0C3FA400415053495320534F4C55544991
:103FB0004F4E530A0D0000544553544544204F4B77
:023FC000008877
:020000040030CA
:0100010028D6
:0100020019E4
:010003003CC0
:01000500BF3B
:010006008178
:00000001FF
